{
  "_format": "hh-sol-artifact-1",
  "contractName": "AVAXSummitGelatoBotNft",
  "sourceName": "contracts/GelatoBotNft.sol",
  "abi": [
    {
      "inputs": [
        {
          "internalType": "address",
          "name": "_gelatoMsgSender",
          "type": "address"
        }
      ],
      "stateMutability": "nonpayable",
      "type": "constructor"
    },
    {
      "anonymous": false,
      "inputs": [
        {
          "indexed": true,
          "internalType": "address",
          "name": "owner",
          "type": "address"
        },
        {
          "indexed": true,
          "internalType": "address",
          "name": "approved",
          "type": "address"
        },
        {
          "indexed": true,
          "internalType": "uint256",
          "name": "tokenId",
          "type": "uint256"
        }
      ],
      "name": "Approval",
      "type": "event"
    },
    {
      "anonymous": false,
      "inputs": [
        {
          "indexed": true,
          "internalType": "address",
          "name": "owner",
          "type": "address"
        },
        {
          "indexed": true,
          "internalType": "address",
          "name": "operator",
          "type": "address"
        },
        {
          "indexed": false,
          "internalType": "bool",
          "name": "approved",
          "type": "bool"
        }
      ],
      "name": "ApprovalForAll",
      "type": "event"
    },
    {
      "anonymous": false,
      "inputs": [
        {
          "indexed": false,
          "internalType": "uint256",
          "name": "_tokenId",
          "type": "uint256"
        }
      ],
      "name": "MetadataUpdate",
      "type": "event"
    },
    {
      "anonymous": false,
      "inputs": [
        {
          "indexed": false,
          "internalType": "uint256",
          "name": "_tokenId",
          "type": "uint256"
        }
      ],
      "name": "MintEvent",
      "type": "event"
    },
    {
      "anonymous": false,
      "inputs": [
        {
          "indexed": true,
          "internalType": "address",
          "name": "previousOwner",
          "type": "address"
        },
        {
          "indexed": true,
          "internalType": "address",
          "name": "newOwner",
          "type": "address"
        }
      ],
      "name": "OwnershipTransferred",
      "type": "event"
    },
    {
      "anonymous": false,
      "inputs": [
        {
          "indexed": false,
          "internalType": "address",
          "name": "account",
          "type": "address"
        }
      ],
      "name": "Paused",
      "type": "event"
    },
    {
      "anonymous": false,
      "inputs": [
        {
          "indexed": true,
          "internalType": "address",
          "name": "from",
          "type": "address"
        },
        {
          "indexed": true,
          "internalType": "address",
          "name": "to",
          "type": "address"
        },
        {
          "indexed": true,
          "internalType": "uint256",
          "name": "tokenId",
          "type": "uint256"
        }
      ],
      "name": "Transfer",
      "type": "event"
    },
    {
      "anonymous": false,
      "inputs": [
        {
          "indexed": false,
          "internalType": "address",
          "name": "account",
          "type": "address"
        }
      ],
      "name": "Unpaused",
      "type": "event"
    },
    {
      "inputs": [
        {
          "internalType": "address",
          "name": "to",
          "type": "address"
        },
        {
          "internalType": "uint256",
          "name": "tokenId",
          "type": "uint256"
        }
      ],
      "name": "approve",
      "outputs": [],
      "stateMutability": "nonpayable",
      "type": "function"
    },
    {
      "inputs": [
        {
          "internalType": "address",
          "name": "owner",
          "type": "address"
        }
      ],
      "name": "balanceOf",
      "outputs": [
        {
          "internalType": "uint256",
          "name": "",
          "type": "uint256"
        }
      ],
      "stateMutability": "view",
      "type": "function"
    },
    {
      "inputs": [],
      "name": "gelatoMsgSender",
      "outputs": [
        {
          "internalType": "address",
          "name": "",
          "type": "address"
        }
      ],
      "stateMutability": "view",
      "type": "function"
    },
    {
      "inputs": [
        {
          "internalType": "uint256",
          "name": "tokenId",
          "type": "uint256"
        }
      ],
      "name": "getApproved",
      "outputs": [
        {
          "internalType": "address",
          "name": "",
          "type": "address"
        }
      ],
      "stateMutability": "view",
      "type": "function"
    },
    {
      "inputs": [
        {
          "internalType": "address",
          "name": "",
          "type": "address"
        }
      ],
      "name": "hasMinted",
      "outputs": [
        {
          "internalType": "bool",
          "name": "",
          "type": "bool"
        }
      ],
      "stateMutability": "view",
      "type": "function"
    },
    {
      "inputs": [
        {
          "internalType": "address",
          "name": "owner",
          "type": "address"
        },
        {
          "internalType": "address",
          "name": "operator",
          "type": "address"
        }
      ],
      "name": "isApprovedForAll",
      "outputs": [
        {
          "internalType": "bool",
          "name": "",
          "type": "bool"
        }
      ],
      "stateMutability": "view",
      "type": "function"
    },
    {
      "inputs": [
        {
          "internalType": "bool",
          "name": "_isNight",
          "type": "bool"
        }
      ],
      "name": "mint",
      "outputs": [],
      "stateMutability": "nonpayable",
      "type": "function"
    },
    {
      "inputs": [],
      "name": "name",
      "outputs": [
        {
          "internalType": "string",
          "name": "",
          "type": "string"
        }
      ],
      "stateMutability": "view",
      "type": "function"
    },
    {
      "inputs": [
        {
          "internalType": "uint256",
          "name": "",
          "type": "uint256"
        }
      ],
      "name": "nightTimeByToken",
      "outputs": [
        {
          "internalType": "bool",
          "name": "",
          "type": "bool"
        }
      ],
      "stateMutability": "view",
      "type": "function"
    },
    {
      "inputs": [],
      "name": "notRevealedUri",
      "outputs": [
        {
          "internalType": "string",
          "name": "",
          "type": "string"
        }
      ],
      "stateMutability": "view",
      "type": "function"
    },
    {
      "inputs": [],
      "name": "owner",
      "outputs": [
        {
          "internalType": "address",
          "name": "",
          "type": "address"
        }
      ],
      "stateMutability": "view",
      "type": "function"
    },
    {
      "inputs": [
        {
          "internalType": "uint256",
          "name": "tokenId",
          "type": "uint256"
        }
      ],
      "name": "ownerOf",
      "outputs": [
        {
          "internalType": "address",
          "name": "",
          "type": "address"
        }
      ],
      "stateMutability": "view",
      "type": "function"
    },
    {
      "inputs": [],
      "name": "pause",
      "outputs": [],
      "stateMutability": "nonpayable",
      "type": "function"
    },
    {
      "inputs": [],
      "name": "paused",
      "outputs": [
        {
          "internalType": "bool",
          "name": "",
          "type": "bool"
        }
      ],
      "stateMutability": "view",
      "type": "function"
    },
    {
      "inputs": [],
      "name": "renounceOwnership",
      "outputs": [],
      "stateMutability": "nonpayable",
      "type": "function"
    },
    {
      "inputs": [
        {
          "internalType": "uint256",
          "name": "tokenId",
          "type": "uint256"
        },
        {
          "internalType": "string",
          "name": "tokenURI",
          "type": "string"
        }
      ],
      "name": "revealNft",
      "outputs": [],
      "stateMutability": "nonpayable",
      "type": "function"
    },
    {
      "inputs": [
        {
          "internalType": "address",
          "name": "from",
          "type": "address"
        },
        {
          "internalType": "address",
          "name": "to",
          "type": "address"
        },
        {
          "internalType": "uint256",
          "name": "tokenId",
          "type": "uint256"
        }
      ],
      "name": "safeTransferFrom",
      "outputs": [],
      "stateMutability": "nonpayable",
      "type": "function"
    },
    {
      "inputs": [
        {
          "internalType": "address",
          "name": "from",
          "type": "address"
        },
        {
          "internalType": "address",
          "name": "to",
          "type": "address"
        },
        {
          "internalType": "uint256",
          "name": "tokenId",
          "type": "uint256"
        },
        {
          "internalType": "bytes",
          "name": "data",
          "type": "bytes"
        }
      ],
      "name": "safeTransferFrom",
      "outputs": [],
      "stateMutability": "nonpayable",
      "type": "function"
    },
    {
      "inputs": [
        {
          "internalType": "address",
          "name": "operator",
          "type": "address"
        },
        {
          "internalType": "bool",
          "name": "approved",
          "type": "bool"
        }
      ],
      "name": "setApprovalForAll",
      "outputs": [],
      "stateMutability": "nonpayable",
      "type": "function"
    },
    {
      "inputs": [
        {
          "internalType": "bytes4",
          "name": "interfaceId",
          "type": "bytes4"
        }
      ],
      "name": "supportsInterface",
      "outputs": [
        {
          "internalType": "bool",
          "name": "",
          "type": "bool"
        }
      ],
      "stateMutability": "view",
      "type": "function"
    },
    {
      "inputs": [],
      "name": "symbol",
      "outputs": [
        {
          "internalType": "string",
          "name": "",
          "type": "string"
        }
      ],
      "stateMutability": "view",
      "type": "function"
    },
    {
      "inputs": [
        {
          "internalType": "address",
          "name": "",
          "type": "address"
        }
      ],
      "name": "tokenIdByUser",
      "outputs": [
        {
          "internalType": "uint256",
          "name": "",
          "type": "uint256"
        }
      ],
      "stateMutability": "view",
      "type": "function"
    },
    {
      "inputs": [],
      "name": "tokenIds",
      "outputs": [
        {
          "internalType": "uint256",
          "name": "_value",
          "type": "uint256"
        }
      ],
      "stateMutability": "view",
      "type": "function"
    },
    {
      "inputs": [
        {
          "internalType": "uint256",
          "name": "tokenId",
          "type": "uint256"
        }
      ],
      "name": "tokenURI",
      "outputs": [
        {
          "internalType": "string",
          "name": "",
          "type": "string"
        }
      ],
      "stateMutability": "view",
      "type": "function"
    },
    {
      "inputs": [
        {
          "internalType": "address",
          "name": "from",
          "type": "address"
        },
        {
          "internalType": "address",
          "name": "to",
          "type": "address"
        },
        {
          "internalType": "uint256",
          "name": "tokenId",
          "type": "uint256"
        }
      ],
      "name": "transferFrom",
      "outputs": [],
      "stateMutability": "nonpayable",
      "type": "function"
    },
    {
      "inputs": [
        {
          "internalType": "address",
          "name": "newOwner",
          "type": "address"
        }
      ],
      "name": "transferOwnership",
      "outputs": [],
      "stateMutability": "nonpayable",
      "type": "function"
    },
    {
      "inputs": [],
      "name": "unpause",
      "outputs": [],
      "stateMutability": "nonpayable",
      "type": "function"
    }
  ],
  "bytecode": "0x60a06040523480156200001157600080fd5b506040516200203038038062002030833981016040819052620000349162000141565b6040518060400160405280601781526020017f415641582053756d6d69742047656c61746f20426f74730000000000000000008152506040518060400160405280600c81526020016b105590560b51d1530b5093d560a21b8152508160009081620000a0919062000218565b506001620000af828262000218565b505050620000cc620000c6620000eb60201b60201c565b620000ef565b6007805460ff60a01b191690556001600160a01b0316608052620002e4565b3390565b600780546001600160a01b038381166001600160a01b0319831681179093556040519116919082907f8be0079c531659141344cd1fd0a4f28419497f9722a3daafe3b4186f6b6457e090600090a35050565b6000602082840312156200015457600080fd5b81516001600160a01b03811681146200016c57600080fd5b9392505050565b634e487b7160e01b600052604160045260246000fd5b600181811c908216806200019e57607f821691505b602082108103620001bf57634e487b7160e01b600052602260045260246000fd5b50919050565b601f8211156200021357600081815260208120601f850160051c81016020861015620001ee5750805b601f850160051c820191505b818110156200020f57828155600101620001fa565b5050505b505050565b81516001600160401b0381111562000234576200023462000173565b6200024c8162000245845462000189565b84620001c5565b602080601f8311600181146200028457600084156200026b5750858301515b600019600386901b1c1916600185901b1785556200020f565b600085815260208120601f198616915b82811015620002b55788860151825594840194600190910190840162000294565b5085821015620002d45787850151600019600388901b60f8161c191681555b5050505050600190811b01905550565b608051611d29620003076000396000818161036e015261080d0152611d296000f3fe608060405234801561001057600080fd5b50600436106101a95760003560e01c8063677fc360116100f9578063a22cb46511610097578063c87b56dd11610071578063c87b56dd14610390578063defa8201146103a3578063e985e9c5146103c6578063f2fde38b146103d957600080fd5b8063a22cb46514610343578063b88d4fde14610356578063c54430821461036957600080fd5b8063715018a6116100d3578063715018a61461031a5780638456cb59146103225780638da5cb5b1461032a57806395d89b411461033b57600080fd5b8063677fc360146102ea57806370a08231146102fd578063714cff561461031057600080fd5b806319eb73ea116101665780633f4ba83a116101405780633f4ba83a146102aa57806342842e0e146102b25780635c975abb146102c55780636352211e146102d757600080fd5b806319eb73ea1461024657806323b872dd1461027457806338e21cce1461028757600080fd5b806301ffc9a7146101ae57806306fdde03146101d6578063081812fc146101eb578063081c8c4414610216578063095ea7b31461021e57806318c41a8014610233575b600080fd5b6101c16101bc366004611691565b6103ec565b60405190151581526020015b60405180910390f35b6101de61043e565b6040516101cd91906116fe565b6101fe6101f9366004611711565b6104d0565b6040516001600160a01b0390911681526020016101cd565b6101de6104f7565b61023161022c366004611746565b610513565b005b610231610241366004611780565b61062d565b61026661025436600461179b565b600a6020526000908152604090205481565b6040519081526020016101cd565b6102316102823660046117b6565b610744565b6101c161029536600461179b565b60096020526000908152604090205460ff1681565b610231610775565b6102316102c03660046117b6565b610787565b600754600160a01b900460ff166101c1565b6101fe6102e5366004611711565b6107a2565b6102316102f836600461187e565b610802565b61026661030b36600461179b565b6108b4565b6008546102669081565b61023161093a565b61023161094c565b6007546001600160a01b03166101fe565b6101de61095c565b6102316103513660046118d9565b61096b565b61023161036436600461190c565b61097a565b6101fe7f000000000000000000000000000000000000000000000000000000000000000081565b6101de61039e366004611711565b6109b2565b6101c16103b1366004611711565b600b6020526000908152604090205460ff1681565b6101c16103d4366004611988565b610ac2565b6102316103e736600461179b565b610af0565b60006001600160e01b031982166380ac58cd60e01b148061041d57506001600160e01b03198216635b5e139f60e01b145b8061043857506301ffc9a760e01b6001600160e01b03198316145b92915050565b60606000805461044d906119b2565b80601f0160208091040260200160405190810160405280929190818152602001828054610479906119b2565b80156104c65780601f1061049b576101008083540402835291602001916104c6565b820191906000526020600020905b8154815290600101906020018083116104a957829003601f168201915b5050505050905090565b60006104db82610b69565b506000908152600460205260409020546001600160a01b031690565b604051806080016040528060508152602001611ca46050913981565b600061051e826107a2565b9050806001600160a01b0316836001600160a01b0316036105905760405162461bcd60e51b815260206004820152602160248201527f4552433732313a20617070726f76616c20746f2063757272656e74206f776e656044820152603960f91b60648201526084015b60405180910390fd5b336001600160a01b03821614806105ac57506105ac8133610ac2565b61061e5760405162461bcd60e51b815260206004820152603d60248201527f4552433732313a20617070726f76652063616c6c6572206973206e6f7420746f60448201527f6b656e206f776e6572206f7220617070726f76656420666f7220616c6c0000006064820152608401610587565b6106288383610bc8565b505050565b610635610c36565b3360009081526009602052604090205460ff16156106875760405162461bcd60e51b815260206004820152600f60248201526e416c7265616479206d696e7465642160881b6044820152606401610587565b610695600880546001019055565b60006106a060085490565b90506106ac3382610c83565b6106ce81604051806080016040528060508152602001611ca460509139610e1c565b3360009081526009602090815260408083208054600160ff1991821617909155600a8352818420859055848452600b83529281902080549093168515151790925590518281527f94242c431036b9ba6723a138d4b275a5b38e13a95ef66227a45df427c0f843f391015b60405180910390a15050565b61074e3382610eaf565b61076a5760405162461bcd60e51b8152600401610587906119ec565b610628838383610f0d565b61077d61107e565b6107856110d8565b565b6106288383836040518060200160405280600081525061097a565b6000818152600260205260408120546001600160a01b0316806104385760405162461bcd60e51b8152602060048201526018602482015277115490cdcc8c4e881a5b9d985b1a59081d1bdad95b88125160421b6044820152606401610587565b336001600160a01b037f0000000000000000000000000000000000000000000000000000000000000000161461087a5760405162461bcd60e51b815260206004820181905260248201527f4f6e6c79206465646963617465642067656c61746f206d73672e73656e6465726044820152606401610587565b6108848282610e1c565b6040518281527ff8e1a15aba9398e019f0b49df1a4fde98ee17ae345cb5f6b5e2c27f5033e8ce790602001610738565b60006001600160a01b03821661091e5760405162461bcd60e51b815260206004820152602960248201527f4552433732313a2061646472657373207a65726f206973206e6f7420612076616044820152683634b21037bbb732b960b91b6064820152608401610587565b506001600160a01b031660009081526003602052604090205490565b61094261107e565b610785600061112d565b61095461107e565b61078561117f565b60606001805461044d906119b2565b6109763383836111c2565b5050565b6109843383610eaf565b6109a05760405162461bcd60e51b8152600401610587906119ec565b6109ac84848484611290565b50505050565b60606109bd82610b69565b600082815260066020526040812080546109d6906119b2565b80601f0160208091040260200160405190810160405280929190818152602001828054610a02906119b2565b8015610a4f5780601f10610a2457610100808354040283529160200191610a4f565b820191906000526020600020905b815481529060010190602001808311610a3257829003601f168201915b505050505090506000610a6d60408051602081019091526000815290565b90508051600003610a7f575092915050565b815115610ab1578082604051602001610a99929190611a39565b60405160208183030381529060405292505050919050565b610aba846112c3565b949350505050565b6001600160a01b03918216600090815260056020908152604080832093909416825291909152205460ff1690565b610af861107e565b6001600160a01b038116610b5d5760405162461bcd60e51b815260206004820152602660248201527f4f776e61626c653a206e6577206f776e657220697320746865207a65726f206160448201526564647265737360d01b6064820152608401610587565b610b668161112d565b50565b6000818152600260205260409020546001600160a01b0316610b665760405162461bcd60e51b8152602060048201526018602482015277115490cdcc8c4e881a5b9d985b1a59081d1bdad95b88125160421b6044820152606401610587565b600081815260046020526040902080546001600160a01b0319166001600160a01b0384169081179091558190610bfd826107a2565b6001600160a01b03167f8c5be1e5ebec7d5bd14f71427d1e84f3dd0314c0f7b2291e5b200ac8c7c3b92560405160405180910390a45050565b600754600160a01b900460ff16156107855760405162461bcd60e51b815260206004820152601060248201526f14185d5cd8589b194e881c185d5cd95960821b6044820152606401610587565b6001600160a01b038216610cd95760405162461bcd60e51b815260206004820181905260248201527f4552433732313a206d696e7420746f20746865207a65726f20616464726573736044820152606401610587565b6000818152600260205260409020546001600160a01b031615610d3e5760405162461bcd60e51b815260206004820152601c60248201527f4552433732313a20746f6b656e20616c7265616479206d696e746564000000006044820152606401610587565b610d4c600083836001611337565b6000818152600260205260409020546001600160a01b031615610db15760405162461bcd60e51b815260206004820152601c60248201527f4552433732313a20746f6b656e20616c7265616479206d696e746564000000006044820152606401610587565b6001600160a01b038216600081815260036020908152604080832080546001019055848352600290915280822080546001600160a01b0319168417905551839291907fddf252ad1be2c89b69c2b068fc378daa952ba7f163c4a11628f55a4df523b3ef908290a45050565b6000828152600260205260409020546001600160a01b0316610e975760405162461bcd60e51b815260206004820152602e60248201527f45524337323155524953746f726167653a2055524920736574206f66206e6f6e60448201526d32bc34b9ba32b73a103a37b5b2b760911b6064820152608401610587565b60008281526006602052604090206106288282611ab6565b600080610ebb836107a2565b9050806001600160a01b0316846001600160a01b03161480610ee25750610ee28185610ac2565b80610aba5750836001600160a01b0316610efb846104d0565b6001600160a01b031614949350505050565b826001600160a01b0316610f20826107a2565b6001600160a01b031614610f465760405162461bcd60e51b815260040161058790611b76565b6001600160a01b038216610fa85760405162461bcd60e51b8152602060048201526024808201527f4552433732313a207472616e7366657220746f20746865207a65726f206164646044820152637265737360e01b6064820152608401610587565b610fb58383836001611337565b826001600160a01b0316610fc8826107a2565b6001600160a01b031614610fee5760405162461bcd60e51b815260040161058790611b76565b600081815260046020908152604080832080546001600160a01b03199081169091556001600160a01b0387811680865260038552838620805460001901905590871680865283862080546001019055868652600290945282852080549092168417909155905184937fddf252ad1be2c89b69c2b068fc378daa952ba7f163c4a11628f55a4df523b3ef91a4505050565b6007546001600160a01b031633146107855760405162461bcd60e51b815260206004820181905260248201527f4f776e61626c653a2063616c6c6572206973206e6f7420746865206f776e65726044820152606401610587565b6110e06113bf565b6007805460ff60a01b191690557f5db9ee0a495bf2e6ff9c91a7834c1ba4fdd244a5e8aa4e537bd38aeae4b073aa335b6040516001600160a01b03909116815260200160405180910390a1565b600780546001600160a01b038381166001600160a01b0319831681179093556040519116919082907f8be0079c531659141344cd1fd0a4f28419497f9722a3daafe3b4186f6b6457e090600090a35050565b611187610c36565b6007805460ff60a01b1916600160a01b1790557f62e78cea01bee320cd4e420270b5ea74000d11b0c9f74754ebdbfc544b05a2586111103390565b816001600160a01b0316836001600160a01b0316036112235760405162461bcd60e51b815260206004820152601960248201527f4552433732313a20617070726f766520746f2063616c6c6572000000000000006044820152606401610587565b6001600160a01b03838116600081815260056020908152604080832094871680845294825291829020805460ff191686151590811790915591519182527f17307eab39ab6107e8899845ad3d59bd9653f200f220920489ca2b5937696c31910160405180910390a3505050565b61129b848484610f0d565b6112a78484848461140f565b6109ac5760405162461bcd60e51b815260040161058790611bbb565b60606112ce82610b69565b60006112e560408051602081019091526000815290565b905060008151116113055760405180602001604052806000815250611330565b8061130f84611510565b604051602001611320929190611a39565b6040516020818303038152906040525b9392505050565b60018111156109ac576001600160a01b0384161561137d576001600160a01b03841660009081526003602052604081208054839290611377908490611c23565b90915550505b6001600160a01b038316156109ac576001600160a01b038316600090815260036020526040812080548392906113b4908490611c36565b909155505050505050565b600754600160a01b900460ff166107855760405162461bcd60e51b815260206004820152601460248201527314185d5cd8589b194e881b9bdd081c185d5cd95960621b6044820152606401610587565b60006001600160a01b0384163b1561150557604051630a85bd0160e11b81526001600160a01b0385169063150b7a0290611453903390899088908890600401611c49565b6020604051808303816000875af192505050801561148e575060408051601f3d908101601f1916820190925261148b91810190611c86565b60015b6114eb573d8080156114bc576040519150601f19603f3d011682016040523d82523d6000602084013e6114c1565b606091505b5080516000036114e35760405162461bcd60e51b815260040161058790611bbb565b805181602001fd5b6001600160e01b031916630a85bd0160e11b149050610aba565b506001949350505050565b6060600061151d836115a3565b600101905060008167ffffffffffffffff81111561153d5761153d6117f2565b6040519080825280601f01601f191660200182016040528015611567576020820181803683370190505b5090508181016020015b600019016f181899199a1a9b1b9c1cb0b131b232b360811b600a86061a8153600a850494508461157157509392505050565b60008072184f03e93ff9f4daa797ed6e38ed64bf6a1f0160401b83106115e25772184f03e93ff9f4daa797ed6e38ed64bf6a1f0160401b830492506040015b6d04ee2d6d415b85acef8100000000831061160e576d04ee2d6d415b85acef8100000000830492506020015b662386f26fc10000831061162c57662386f26fc10000830492506010015b6305f5e1008310611644576305f5e100830492506008015b612710831061165857612710830492506004015b6064831061166a576064830492506002015b600a83106104385760010192915050565b6001600160e01b031981168114610b6657600080fd5b6000602082840312156116a357600080fd5b81356113308161167b565b60005b838110156116c95781810151838201526020016116b1565b50506000910152565b600081518084526116ea8160208601602086016116ae565b601f01601f19169290920160200192915050565b60208152600061133060208301846116d2565b60006020828403121561172357600080fd5b5035919050565b80356001600160a01b038116811461174157600080fd5b919050565b6000806040838503121561175957600080fd5b6117628361172a565b946020939093013593505050565b8035801515811461174157600080fd5b60006020828403121561179257600080fd5b61133082611770565b6000602082840312156117ad57600080fd5b6113308261172a565b6000806000606084860312156117cb57600080fd5b6117d48461172a565b92506117e26020850161172a565b9150604084013590509250925092565b634e487b7160e01b600052604160045260246000fd5b600067ffffffffffffffff80841115611823576118236117f2565b604051601f8501601f19908116603f0116810190828211818310171561184b5761184b6117f2565b8160405280935085815286868601111561186457600080fd5b858560208301376000602087830101525050509392505050565b6000806040838503121561189157600080fd5b82359150602083013567ffffffffffffffff8111156118af57600080fd5b8301601f810185136118c057600080fd5b6118cf85823560208401611808565b9150509250929050565b600080604083850312156118ec57600080fd5b6118f58361172a565b915061190360208401611770565b90509250929050565b6000806000806080858703121561192257600080fd5b61192b8561172a565b93506119396020860161172a565b925060408501359150606085013567ffffffffffffffff81111561195c57600080fd5b8501601f8101871361196d57600080fd5b61197c87823560208401611808565b91505092959194509250565b6000806040838503121561199b57600080fd5b6119a48361172a565b91506119036020840161172a565b600181811c908216806119c657607f821691505b6020821081036119e657634e487b7160e01b600052602260045260246000fd5b50919050565b6020808252602d908201527f4552433732313a2063616c6c6572206973206e6f7420746f6b656e206f776e6560408201526c1c881bdc88185c1c1c9bdd9959609a1b606082015260800190565b60008351611a4b8184602088016116ae565b835190830190611a5f8183602088016116ae565b01949350505050565b601f82111561062857600081815260208120601f850160051c81016020861015611a8f5750805b601f850160051c820191505b81811015611aae57828155600101611a9b565b505050505050565b815167ffffffffffffffff811115611ad057611ad06117f2565b611ae481611ade84546119b2565b84611a68565b602080601f831160018114611b195760008415611b015750858301515b600019600386901b1c1916600185901b178555611aae565b600085815260208120601f198616915b82811015611b4857888601518255948401946001909101908401611b29565b5085821015611b665787850151600019600388901b60f8161c191681555b5050505050600190811b01905550565b60208082526025908201527f4552433732313a207472616e736665722066726f6d20696e636f72726563742060408201526437bbb732b960d91b606082015260800190565b60208082526032908201527f4552433732313a207472616e7366657220746f206e6f6e20455243373231526560408201527131b2b4bb32b91034b6b83632b6b2b73a32b960711b606082015260800190565b634e487b7160e01b600052601160045260246000fd5b8181038181111561043857610438611c0d565b8082018082111561043857610438611c0d565b6001600160a01b0385811682528416602082015260408101839052608060608201819052600090611c7c908301846116d2565b9695505050505050565b600060208284031215611c9857600080fd5b81516113308161167b56fe697066733a2f2f626166797265696377693773626f6d7a376c75356a6f7a67656768636c687074696c6276766c747078743368627079617a7a357a7876716836326d2f6d657461646174612e6a736f6ea2646970667358221220e4f599d283f6663e0c43183c38f0bae4d44714e24a0d14d8c7134e7e580db82864736f6c63430008110033",
  "linkReferences": {},
  "deployedLinkReferences": {}
}